:100000000C942A000C944E000C944E000C944E005C
:100010000C944E000C944E000C944E000C944E0028
:100020000C944E000C944E000C944E000C944E0018
:100030000C944E000C944E000C944E000C944E0008
:100040000C944E000C944E000C944E000C944E00F8
:100050000C944E0011241FBECFE5D4E0DEBFCDBF0F
:0C0060000E9436000C943400F894FFCF8E
:10006C0081E087BB88BB88BB2FEF38E09DE3215034
:10007C0030409040E1F700C0000018BA2FEF38E094
:10008C009DE3215030409040E1F700C00000EBCFE1
:04009C000C940000C0
:00000001FF
